:020000040800F2
:1000000000280020CD0F00085D0F0008630F0008D6
:10001000690F00086F0F0008750F0008000000004E
:100020000000000000000000000000007B0F00083E
:10003000870F000800000000930F00089F0F0008C2
:1000400015100008151000081510000815100008FC
:1000500015100008151000081510000815100008EC
:1000600015100008151000081510000815100008DC
:1000700015100008151000081510000815100008CC
:1000800015100008151000081510000815100008BC
:1000900015100008151000081510000815100008AC
:1000A000151000081510000815100008151000089C
:1000B000AD0F000815100008000000001510000822
:1000C00015100008000000000000000015100008D6
:1000D00000000000151000081510000800000000C6
:1000E0001510000815100008151000080000000089
:1000F0000000000000000000000000000000000000
:0C01000000000000000000005FF808F1A3
:10010C0010B5054C237833B9044B13B10448AFF345
:10011C0000800123237010BD6C0000200000000043
:10012C001826000808B5034B1BB103490348AFF36D
:10013C00008008BD00000000700000201826000898
:10014C0080B582B000AF00237B600EE00B4A7B6869
:10015C0052F823000A4A7B6832F813300022194601
:10016C0001F03EFA7B6801337B6008227B68934286
:10017C00ECDB00BF00BF0837BD4680BD000000208F
:10018C002000002080B58AB000AF78607B68072B18
:10019C0000F2D58101A252F823F000BFC90100087A
:1001AC0037020008A50200081303000881030008A9
:1001BC00EF0300085D040008DD040008FFF7C0FF32
:1001CC00B54B1B68B54A11880122184601F008FA94
:1001DC0000237B6224E066231A467B6A42FA03F30F
:1001EC0003F00103002B0CD0AD4A7B6A52F82300BC
:1001FC00AC4A7B6A32F813300122194601F0F0F94F
:10020C000BE0A74A7B6A52F82300A64A7B6A32F8B5
:10021C0013300022194601F0E3F97B6A01337B624B
:10022C0008227B6A9342D6DB8AE1FFF789FF9A4B5F
:10023C005B689A4A51880122184601F0D1F90023D3
:10024C003B6224E066231A463B6A42FA03F303F04E
:10025C000103002B0CD0924A3B6A52F82300914ABE
:10026C003B6A32F813300122194601F0B9F90BE060
:10027C008B4A3B6A52F823008A4A3B6A32F81330A5
:10028C000022194601F0ACF93B6A01333B620822AB
:10029C003B6A9342D6DB53E1FFF752FF7E4B9B68E0
:1002AC007E4A91880122184601F09AF90023FB61DD
:1002BC0024E07E231A46FB6942FA03F303F00103A0
:1002CC00002B0CD0764AFB6952F82300754AFB6967
:1002DC0032F813300122194601F082F90BE0704A12
:1002EC00FB6952F823006F4AFB6932F81330002285
:1002FC00194601F075F9FB690133FB610822FB69B2
:10030C009342D6DB1CE1FFF71BFF634BDB68634AB0
:10031C00D1880122184601F063F90023BB6124E067
:10032C007E231A46BB6942FA03F303F00103002B48
:10033C000CD05B4ABB6952F823005A4ABB6932F8AD
:10034C0013300122194601F04BF90BE0544ABB69FA
:10035C0052F82300534ABB6932F813300022194675
:10036C0001F03EF9BB690133BB610822BB699342C2
:10037C00D6DBE5E0FFF7E4FE474B1B69474A1189E2
:10038C000122184601F02CF900237B6124E066233E
:10039C001A467B6942FA03F303F00103002B0CD0DD
:1003AC003F4A7B6952F823003E4A7B6932F813308E
:1003BC000122194601F014F90BE0394A7B6952F815
:1003CC002300384A7B6932F813300022194601F0B9
:1003DC0007F97B6901337B6108227B699342D6DB89
:1003EC00AEE0FFF7ADFE2C4B5B692C4A5189012224
:1003FC00184601F0F5F800233B6124E066231A4609
:10040C003B6942FA03F303F00103002B0CD0244A9E
:10041C003B6952F82300234A3B6932F8133001221E
:10042C00194601F0DDF80BE01D4A3B6952F8230038
:10043C001C4A3B6932F813300022194601F0D0F8FF
:10044C003B6901333B6108223B699342D6DB77E081
:10045C00FFF776FE104B9B69104A918901221846D2
:10046C0001F0BEF80023FB602DE03C231A46FB682C
:10047C0042FA03F303F00103002B15D0084AFB6882
:10048C0052F82300074AFB6832F813300122194650
:10049C0001F0A6F814E000BF0000002020000020AE
:1004AC003000002050000020274AFB6852F823003F
:1004BC00264AFB6832F813300022194601F090F8F6
:1004CC00FB680133FB600822FB689342CDDB37E00D
:1004DC00FFF736FE1E4BDB691E4AD18901221846F6
:1004EC0001F07EF80023BB6024E018231A46BB6899
:1004FC0042FA03F303F00103002B0CD0124ABB6841
:10050C0052F82300114ABB6832F813300122194605
:10051C0001F066F80BE00C4ABB6852F823000B4A5A
:10052C00BB6832F813300022194601F059F8BB6849
:10053C000133BB600822BB689342D6DB00E000BFEE
:10054C0000BF2837BD4680BD300000205000002081
:10055C00000000202000002080B500AF00F056FD08
:10056C0000F0C6F800F04CF900F0FEF8544801F029
:10057C0095FC544B0F221A60534B08221A60534BB4
:10058C0032221A6000F070FB01224021504801F029
:10059C0027F8012280214E4801F022F801224FF465
:1005AC0080714B4801F01CF801224FF4007148484F
:1005BC0001F016F8642000F0A7FB642000F0B8FBF3
:1005CC00642000F0C9FB192000F0DAFB0A2000F0CF
:1005DC00EBFB404B1B68012B06D1642000F094FB15
:1005EC0020213B4801F014F83B4B1B68012B06D132
:1005FC00642000F09DFB1021354801F009F8374BC1
:10060C001B68012B28D1642000F0A6FB2F4B1B6824
:10061C0001332E4A13602D4B1B683B2B07DD2B4BF4
:10062C0000221A60284B1B680133274A1360264BA3
:10063C001B683B2B07DD244B00221A60214B1B68E7
:10064C000133204A13601F4B1B68172B02DD1D4B17
:10065C0000221A6000F008FB214B1B68012B14D1FF
:10066C00192000F08DFB1F4B1B68184600F070FA28
:10067C001C4B1B6801331B4A13601A4B1B6804226A
:10068C00934202DB174B00221A60174B1B68012B9D
:10069C009FD10A2000F088FB144B1B681846FFF70B
:1006AC0071FD124B1B680133104A13600F4B1B6812
:1006BC00082293428DDB0D4B00221A6089E700BFA4
:1006CC00D40000209C000020A0000020A4000020EA
:1006DC0000080140B0000020B8000020C00000203D
:1006EC00C800002088000020D0000020A8000020B6
:1006FC0080B590B000AF07F11803282200211846EE
:10070C0001F07CFF3B1D00221A605A609A60DA608F
:10071C001A610223BB610123BB621023FB6200231D
:10072C007B6307F11803184600F08CFF0346002B7F
:10073C0001D000F0E3FA0F237B600023BB600023A1
:10074C00FB6000233B6100237B613B1D00211846AD
:10075C0001F0F8F90346002B01D000F0CFFA00BFEE
:10076C004037BD4680BD000080B586B000AF07F1B4
:10077C00080300221A605A609A60DA603B46002235
:10078C001A605A601D4B4FF080421A601B4B41F6A9
:10079C003F725A60194B00229A60184B0922DA609A
:1007AC00164B00221A61154B00229A61134801F076
:1007BC0025FB0346002B01D000F0A0FA4FF4805328
:1007CC00BB6007F1080319460C4801F0A3FC034673
:1007DC00002B01D000F092FA00233B6000237B60D9
:1007EC003B461946054801F07BFE0346002B01D021
:1007FC0000F084FA00BF1837BD4680BDD40000203D
:10080C0080B586B000AF07F1080300221A605A6069
:10081C009A60DA60224B9B69214A43F0040393618E
:10082C001F4B9B6903F004037B607B681C4B9B692B
:10083C001B4A43F008039361194B9B6903F00803AF
:10084C003B603B6800224FF6FC71164800F0C8FE76
:10085C0000224FF67F71144800F0C2FE4FF6FC7375
:10086C00BB600123FB6000233B6102237B6107F12A
:10087C00080319460B4800F039FD4FF67F73BB6037
:10088C000123FB6000233B6102237B6107F108031A
:10089C001946054800F02AFD00BF1837BD4680BD3B
:1008AC000010024000080140000C014080B500AF70
:1008BC0001220121114800F093FE012202210F4870
:1008CC0000F08EFE012204210C4800F089FE01226A
:1008DC0008210A4800F084FE01221021074800F08C
:1008EC007FFE01222021054800F07AFE01224021E2
:1008FC00024800F075FE00BF80BD00BF000C014037
:10090C0080B582B000AF7860FFF7D0FF7B68092B11
:10091C0000F2178101A252F823F000BF5109000820
:10092C008F090008A5090008D90900080D0A00085C
:10093C00370A00086B0A0008A90A0008C90A00084F
:10094C00110B000800220121804800F049FE002212
:10095C0002217E4800F044FE002204217B4800F076
:10096C003FFE00220821794800F03AFE00221021B7
:10097C00764800F035FE00222021744800F030FE4D
:10098C00E0E000220221714800F02AFE002204213E
:10099C006E4800F025FED5E0002201216B4800F0E6
:1009AC001FFE00220221694800F01AFE00220821D5
:1009BC00664800F015FE00221021644800F010FE7D
:1009CC0000224021614800F00BFEBBE00022012117
:1009DC005E4800F005FE002202215C4800F000FE9B
:1009EC0000220421594800F0FBFD00220821574841
:1009FC0000F0F6FD00224021544800F0F1FDA1E08A
:100A0C0000220221514800F0EBFD002204214F4846
:100A1C0000F0E6FD002220214C4800F0E1FD002210
:100A2C0040214A4800F0DCFD8CE0002201214748BF
:100A3C0000F0D6FD00220421444800F0D1FD002234
:100A4C000821424800F0CCFD002220213F4800F054
:100A5C00C7FD002240213D4800F0C2FD72E000229B
:100A6C0001213A4800F0BCFD00220421374800F077
:100A7C00B7FD00220821354800F0B2FD00221021FC
:100A8C00324800F0ADFD00222021304800F0A8FDD6
:100A9C00002240212D4800F0A3FD53E0002201214B
:100AAC002A4800F09DFD00220221284800F098FD04
:100ABC0000220421254800F093FD43E0002201218F
:100ACC00224800F08DFD00220221204800F088FD14
:100ADC00002204211D4800F083FD002208211B4840
:100AEC0000F07EFD00221021184800F079FD002254
:100AFC002021164800F074FD00224021134800F01C
:100B0C006FFD1FE000220121104800F069FD00225A
:100B1C0002210E4800F064FD002204210B4800F075
:100B2C005FFD00220821094800F05AFD0022202117
:100B3C00064800F055FD00224021044800F050FD0D
:100B4C0000E000BF00BF0837BD4680BD000C01406F
:100B5C0080B582B000AF78607B68032B7AD801A295
:100B6C0052F823F0810B0008B90B0008F10B0008B8
:100B7C00290C00083A4B1B681846FFF7C1FE0022EF
:100B8C004021384800F02CFD01228021354800F02E
:100B9C0027FD01224FF48071324800F021FD012223
:100BAC004FF400712F4800F01BFD54E02C4B5B6898
:100BBC001846FFF7A5FE012240212A4800F010FD3F
:100BCC0000228021274800F00BFD01224FF4807198
:100BDC00244800F005FD01224FF40071214800F07B
:100BEC00FFFC38E01E4B9B681846FFF789FE01227C
:100BFC0040211C4800F0F4FC01228021194800F02F
:100C0C00EFFC00224FF48071164800F0E9FC012241
:100C1C004FF40071134800F0E3FC1CE0104BDB6850
:100C2C001846FFF76DFE012240210E4800F0D8FC5B
:100C3C00012280210B4800F0D3FC01224FF480717B
:100C4C00084800F0CDFC00224FF40071054800F07C
:100C5C00C7FC00E000BF00BF0837BD4680BD00BF29
:100C6C008C0000200008014080B400AF1A4B1B68B8
:100C7C001A4A82FB03129210DB17D31A184A13601C
:100C8C00154B1968154B83FB01239A10CB17D21AFD
:100C9C0013469B0013445B00CA1A114B5A60114B4C
:100CAC001B680E4A82FB03129210DB17D31A0C4AF4
:100CBC0093600C4B1968094B83FB01239A10CB17DB
:100CCC00D21A13469B0013445B00CA1A044BDA6019
:100CDC0000BFBD4680BC70479C00002067666666FE
:100CEC008C000020A000002080B582B000AF78609E
:100CFC0000F06EF800BF0837BD4680BD80B400AF71
:100D0C0072B600BFFEE7000080B483B000AF78601D
:100D1C00054A7B681360054B00221A6000BF0C3734
:100D2C00BD4680BC704700BFAC000020B000002066
:100D3C0080B483B000AF7860054A7B681360054BC4
:100D4C0000221A6000BF0C37BD4680BC704700BF44
:100D5C00B4000020B800002080B483B000AF7860ED
:100D6C00054A7B681360054B00221A6000BF0C37E4
:100D7C00BD4680BC704700BFBC000020C0000020F6
:100D8C0080B483B000AF7860054A7B681360054B74
:100D9C0000221A6000BF0C37BD4680BC704700BFF4
:100DAC00C4000020C800002080B483B000AF78607D
:100DBC00054A7B681360054B00221A6000BF0C3794
:100DCC00BD4680BC704700BFCC000020D000002086
:100DDC0080B400AF294B1B68002B0BDD274B1B6825
:100DEC00013B264A1360254B1B68002B02DC244B6D
:100DFC0001221A60234B1B68002B0BDD214B1B6857
:100E0C00013B204A13601F4B1B68002B02DC1E4B5E
:100E1C0001221A601D4B1B68002B0BDD1B4B1B6842
:100E2C00013B1A4A1360194B1B68002B02DC184B50
:100E3C0001221A60174B1B68002B0BDD154B1B682E
:100E4C00013B144A1360134B1B68002B02DC124B42
:100E5C0001221A60114B1B68002B0BDD0F4B1B681A
:100E6C00013B0E4A13600D4B1B68002B02DC0C4B34
:100E7C0001221A6000BFBD4680BC7047AC00002048
:100E8C00B0000020B4000020B8000020BC000020FE
:100E9C00C0000020C4000020C8000020CC000020AE
:100EAC00D000002080B485B000AF154B9B69144A6C
:100EBC0043F001039361124B9B6903F00103BB6088
:100ECC00BB680F4BDB690E4A43F08053D3610C4B6C
:100EDC00DB6903F080537B607B680A4B5B68FB60CB
:100EEC00FB6823F0E063FB60FB6843F08063FB600E
:100EFC00044AFB68536000BF1437BD4680BC704782
:100F0C00001002400000014080B584B000AF786052
:100F1C007B681B68B3F1804F13D10C4BDB690B4A18
:100F2C0043F00103D361094BDB6903F00103FB6060
:100F3C00FB68002200211C2000F0A1F91C2000F00D
:100F4C00BAF900BF1037BD4680BD00BF001002408B
:100F5C0080B400AFFEE780B400AFFEE780B400AF12
:100F6C00FEE780B400AFFEE780B400AFFEE780B4CC
:100F7C0000AF00BFBD4680BC704780B400AF00BF5F
:100F8C00BD4680BC704780B400AF00BFBD4680BC7E
:100F9C00704780B500AF00F07FF800BF80BD000047
:100FAC0080B500AF024800F0C5FF00BF80BD00BF98
:100FBC00D400002080B400AF00BFBD4680BC704799
:100FCC00FFF7F8FF0B480C490C4A002302E0D458F9
:100FDC00C4500433C4188C42F9D3094A094C002379
:100FEC0001E013600432A242FBD301F0E3FAFFF7F5
:100FFC00B3FA7047000000206C0000205C2600084B
:10100C006C00002020010020FEE7000080B500AF3E
:10101C00084B1B68074A43F010031360032000F0D1
:10102C0023F90F2000F008F8FFF73CFF00231846C7
:10103C0080BD00BF0020024080B582B000AF786058
:10104C00124B1A68124B1B7819464FF47A73B3FB88
:10105C00F1F3B2FBF3F3184600F03BF90346002B17
:10106C0001D001230EE07B680F2B0AD8002279688F
:10107C004FF0FF3000F003F9064A7B681360002341
:10108C0000E0012318460837BD4680BD60000020F3
:10109C00680000206400002080B400AF054B1B7872
:1010AC001A46054B1B681344034A136000BFBD4628
:1010BC0080BC7047680000201C01002080B400AF89
:1010CC00024B1B681846BD4680BC70471C010020B3
:1010DC0080B485B000AF78607B6803F00703FB60D9
:1010EC000C4BDB68BB60BA684FF6FF031340BB6068
:1010FC00FB681A02BB68134343F0BF6343F400332D
:10110C00BB60044ABB68D36000BF1437BD4680BCCB
:10111C00704700BF00ED00E080B400AF044BDB680B
:10112C001B0A03F007031846BD4680BC704700BF7E
:10113C0000ED00E080B483B000AF0346FB7197F97B
:10114C000730002B0BDBFB7903F01F02064997F9E4
:10115C0007305B09012000FA02F241F8232000BF9E
:10116C000C37BD4680BC704700E100E080B483B012
:10117C0000AF03463960FB7197F90730002B0ADB8F
:10118C003B68DAB20C4997F907301201D2B20B4422
:10119C0083F800230AE03B68DAB20849FB7903F0D4
:1011AC000F03043B1201D2B20B441A7600BF0C376A
:1011BC00BD4680BC704700BF00E100E000ED00E0E0
:1011CC0080B489B000AFF860B9607A60FB6803F056
:1011DC000703FB61FB69C3F10703042B28BF04233E
:1011EC00BB61FB690433062B02D9FB69033B00E0AE
:1011FC0000237B614FF0FF32BB6902FA03F3DA4341
:10120C00BB681A407B699A404FF0FF317B6901FA49
:10121C0003F3D9437B680B40134318462437BD4670
:10122C0080BC704780B582B000AF78607B68013BB2
:10123C00B3F1807F01D301230FE00A4A7B68013BA5
:10124C0053600F214FF0FF30FFF790FF054B00224A
:10125C009A60044B07221A60002318460837BD46D3
:10126C0080BD00BF10E000E080B582B000AF7860B8
:10127C007868FFF72DFF00BF0837BD4680BD80B5ED
:10128C0086B000AF0346B9607A60FB7300237B61C4
:10129C00FFF742FF78617A68B9687869FFF790FFC9
:1012AC00024697F90F3011461846FFF75FFF00BF53
:1012BC001837BD4680BD80B582B000AF0346FB71C8
:1012CC0097F907301846FFF735FF00BF0837BD46C2
:1012DC0080BD80B582B000AF78607868FFF7A2FF60
:1012EC00034618460837BD4680BD000080B48BB05D
:1012FC0000AF7860396000237B6200233B6248E1D9
:10130C0001227B6A02FA03F3FB613B681B68FA69F2
:10131C001340BB61BA69FB699A4240F037813B6864
:10132C005B68A34A93425ED0A14A934275D8A14A06
:10133C00934258D09F4A93426FD89F4A934252D0BF
:10134C009D4A934269D89D4A93424CD09B4A934202
:10135C0063D89B4A934246D0994A93425DD8122B4C
:10136C002AD8122B59D801A252F823F0F3130008F3
:10137C00CD130008DF1300082114000827140008FF
:10138C002714000827140008271400082714000845
:10139C002714000827140008271400082714000835
:1013AC002714000827140008271400082714000825
:1013BC00D5130008E9130008824A934213D02CE09D
:1013CC003B68DB683B6229E03B68DB6804333B62CB
:1013DC0024E03B68DB6808333B621FE03B68DB685A
:1013EC000C333B621AE03B689B68002B02D1042350
:1013FC003B6213E03B689B68012B05D108233B62E1
:10140C007B68FA691A6109E008233B627B68FA6918
:10141C005A6103E000233B6200E000BFBB69FF2B75
:10142C0001D87B6801E07B6804337B61BB69FF2BCF
:10143C0002D87B6A9B0002E07B6A083B9B003B6105
:10144C007B691A680F213B6901FA03F3DB431A40ED
:10145C00396A3B6901FA03F31A437B691A603B68EA
:10146C005B6803F08053002B00F09080564B9B6917
:10147C00554A43F001039361534B9B6903F00103FD
:10148C00BB60BB68514A7B6A9B08023352F823301D
:10149C00FB607B6A03F003039B000F2202FA03F349
:1014AC00DB43FA681340FB607B68494A93420DD0DA
:1014BC007B68484A934207D07B68474A934201D1E4
:1014CC00022304E0032302E0012300E000237A6AF4
:1014DC0002F0030292009340FA681343FB603B490D
:1014EC007B6A9B080233FA6841F823203B685B68EF
:1014FC0003F48013002B06D0384B9A683749BB692C
:10150C0013438B6006E0354B9A68BB69DB43334968
:10151C0013408B603B685B6803F40013002B06D010
:10152C002E4BDA682D49BB691343CB6006E02B4B7D
:10153C00DA68BB69DB4329491340CB603B685B68C5
:10154C0003F40033002B06D0244B5A682349BB69A3
:10155C0013434B6006E0214B5A68BB69DB431F49C0
:10156C0013404B603B685B6803F48033002B06D060
:10157C001A4B1A681949BB6913430B6006E0174BE9
:10158C001A68BB69DB43154913400B607B6A013356
:10159C007B623B681A687B6A22FA03F3002B7FF4A8
:1015AC00AFAE00BF00BF2C37BD4680BC704700BF3C
:1015BC000000321000003110000022100000211039
:1015CC000000121000001110001002400000014039
:1015DC0000080140000C01400010014000040140D3
:1015EC0080B483B000AF78600B467B8013467B7071
:1015FC007B78002B03D07A887B681A6103E07B88A8
:10160C001A047B681A6100BF0C37BD4680BC70475A
:10161C0080B485B000AF78600B467B807B68DB685C
:10162C00FB607A88FB6813401A04FB68D9437B88FB
:10163C000B401A437B681A6100BF1437BD4680BC4F
:10164C007047000080B586B000AF78607B68002BD7
:10165C0001D101236CE27B681B6803F00103002BB2
:10166C0000F08780924B5B6803F00C03042B0CD0CA
:10167C008F4B5B6803F00C03082B12D18C4B5B680F
:10168C0003F48033B3F5803F0BD1894B1B6803F413
:10169C000033002B6CD07B685B68002B68D1012376
:1016AC0046E27B685B68B3F5803F06D1804B1B68D4
:1016BC007F4A43F4803313602EE07B685B68002B19
:1016CC000CD17B4B1B687A4A23F480331360784B24
:1016DC001B68774A23F4802313601DE07B685B68EA
:1016EC00B3F5A02F0CD1724B1B68714A43F48023C5
:1016FC0013606F4B1B686E4A43F4803313600BE02E
:10170C006B4B1B686A4A23F480331360684B1B686D
:10171C00674A23F4802313607B685B68002B13D02B
:10172C00FFF7CCFC386108E0FFF7C8FC02463B69C8
:10173C00D31A642B01D90323FAE15D4B1B6803F424
:10174C000033002BF0D014E0FFF7B8FC386108E050
:10175C00FFF7B4FC02463B69D31A642B01D903236F
:10176C00E6E1534B1B6803F40033002BF0D100E08F
:10177C0000BF7B681B6803F00203002B63D04C4B4B
:10178C005B6803F00C03002B0BD0494B5B6803F038
:10179C000C03082B1CD1464B5B6803F48033002BE5
:1017AC0016D1434B1B6803F00203002B05D07B685A
:1017BC001B69012B01D00123BAE13D4B1B6823F0BF
:1017CC00F8027B685B69DB00394913430B603AE034
:1017DC007B681B69002B20D0364B01221A60FFF767
:1017EC006DFC386108E0FFF769FC02463B69D31ACF
:1017FC00022B01D903239BE12D4B1B6803F0020341
:10180C00002BF0D02A4B1B6823F0F8027B685B6935
:10181C00DB00274913430B6015E0264B00221A60AE
:10182C00FFF74CFC386108E0FFF748FC02463B69C7
:10183C00D31A022B01D903237AE11D4B1B6803F049
:10184C000203002BF0D17B681B6803F00803002B0C
:10185C003AD07B689B69002B19D0174B01221A6078
:10186C00FFF72CFC386108E0FFF728FC02463B69C7
:10187C00D31A022B01D903235AE10D4B5B6A03F0F7
:10188C000203002BF0D0012000F09AFA1CE00A4B66
:10189C0000221A60FFF712FC38610FE0FFF70EFC14
:1018AC0002463B69D31A022B08D9032340E100BF3F
:1018BC000010024000004242800442429E4B5B6A90
:1018CC0003F00203002BE9D17B681B6803F00403CF
:1018DC00002B00F0A6800023FB75974BDB6903F00F
:1018EC008053002B0DD1944BDB69934A43F080530A
:1018FC00D361914BDB6903F08053BB60BB68012360
:10190C00FB758E4B1B6803F48073002B18D18B4B2B
:10191C001B688A4A43F480731360FFF7CFFB38616E
:10192C0008E0FFF7CBFB02463B69D31A642B01D9C5
:10193C000323FDE0814B1B6803F48073002BF0D074
:10194C007B68DB68012B06D17B4B1B6A7A4A43F020
:10195C00010313622DE07B68DB68002B0CD1764B06
:10196C001B6A754A23F001031362734B1B6A724A9C
:10197C0023F0040313621CE07B68DB68052B0CD19D
:10198C006D4B1B6A6C4A43F0040313626A4B1B6A6F
:10199C00694A43F0010313620BE0674B1B6A664A0A
:1019AC0023F001031362644B1B6A634A23F00403A4
:1019BC0013627B68DB68002B15D0FFF77FFB386167
:1019CC000AE0FFF77BFB02463B69D31A41F28832EF
:1019DC00934201D90323ABE0574B1B6A03F002037C
:1019EC00002BEED014E0FFF769FB38610AE0FFF73B
:1019FC0065FB02463B69D31A41F28832934201D906
:101A0C00032395E04C4B1B6A03F00203002BEED131
:101A1C00FB7D012B05D1484BDB69474A23F08053F2
:101A2C00D3617B68DB69002B00F08180424B5B68E3
:101A3C0003F00C03082B61D07B68DB69022B46D1C9
:101A4C003F4B00221A60FFF739FB386108E0FFF7C3
:101A5C0035FB02463B69D31A022B01D9032367E0FD
:101A6C00354B1B6803F00073002BF0D17B681B6AAD
:101A7C00B3F5803F08D1304B5B6823F400327B68B0
:101A8C009B682D4913434B602B4B5B6823F47412FA
:101A9C007B68196A7B685B6A0B43274913434B606D
:101AAC00274B01221A60FFF709FB386108E0FFF7AA
:101ABC0005FB02463B69D31A022B01D9032337E0FD
:101ACC001D4B1B6803F00073002BF0D02FE01C4B58
:101ADC0000221A60FFF7F2FA386108E0FFF7EEFA1D
:101AEC0002463B69D31A022B01D9032320E0124B87
:101AFC001B6803F00073002BF0D118E07B68DB69E6
:101B0C00012B01D1012313E00B4B5B68FB60FB68DD
:101B1C0003F480327B681B6A9A4206D1FB6803F49B
:101B2C0070127B685B6A9A4201D0012300E00023AB
:101B3C0018461837BD4680BD0010024000700040AA
:101B4C006000424280B584B000AF786039607B6839
:101B5C00002B01D10123D0E06A4B1B6803F0070373
:101B6C003A689A4210D9674B1B6823F00702654903
:101B7C003B6813430B60634B1B6803F007033A6825
:101B8C009A4201D00123B8E07B681B6803F0020382
:101B9C00002B20D07B681B6803F00403002B05D0BE
:101BAC00594B5B68584A43F4E06353607B681B688D
:101BBC0003F00803002B05D0534B5B68524A43F4E7
:101BCC0060535360504B5B6823F0F0027B689B685A
:101BDC004D4913434B607B681B6803F00103002BDA
:101BEC0040D07B685B68012B07D1474B1B6803F423
:101BFC000033002B15D101237FE07B685B68022B3F
:101C0C0007D1414B1B6803F00073002B09D1012352
:101C1C0073E03D4B1B6803F00203002B01D1012341
:101C2C006BE0394B5B6823F003027B685B683649D9
:101C3C0013434B60FFF742FAF8600AE0FFF73EFAF5
:101C4C000246FB68D31A41F28832934201D903232E
:101C5C0053E02D4B5B6803F00C027B685B689B00C8
:101C6C009A42EBD1274B1B6803F007033A689A4260
:101C7C0010D2244B1B6823F0070222493B68134304
:101C8C000B60204B1B6803F007033A689A4201D0A3
:101C9C00012332E07B681B6803F00403002B08D09F
:101CAC00194B5B6823F4E0627B68DB6816491343CD
:101CBC004B607B681B6803F00803002B09D0124BA8
:101CCC005B6823F460527B681B69DB000E4913438D
:101CDC004B6000F021F802460B4B5B681B0903F0CC
:101CEC000F030A49CB5C22FA03F3094A1360094B30
:101CFC001B681846FFF7A0F9002318461037BD469D
:101D0C0080BD00BF002002400010024030260008B9
:101D1C00600000206400002080B487B000AF002376
:101D2C00FB600023BB6000237B6100237B600023EE
:101D3C003B611E4B5B68FB60FB6803F00C03042BE0
:101D4C0002D0082B03D027E0194B3B6127E0FB683E
:101D5C009B0C03F00F03174AD35C7B60FB6803F406
:101D6C008033002B10D0114B5B685B0C03F001032C
:101D7C00114AD35CBB607B680D4A02FB03F2BB6863
:101D8C00B2FBF3F37B6104E07B680C4A02FB03F3C8
:101D9C007B617B693B6102E0054B3B6100BF3B69AA
:101DAC0018461C37BD4680BC704700BF001002406F
:101DBC0000127A00402600085026000800093D0059
:101DCC0080B485B000AF78600A4B1B680A4AA2FB4E
:101DDC0003235B0A7A6802FB03F3FB6000BFFB681A
:101DEC005A1EFA60002BF9D100BF00BF1437BD4654
:101DFC0080BC704760000020D34D621080B582B06B
:101E0C0000AF78607B68002B01D1012341E07B6837
:101E1C0093F83D30DBB2002B06D17B68002283F8AF
:101E2C003C207868FFF770F87B68022283F83D202D
:101E3C007B681A687B6804331946104600F056FA22
:101E4C007B68012283F846207B68012283F83E20C0
:101E5C007B68012283F83F207B68012283F84020B5
:101E6C007B68012283F841207B68012283F84220A1
:101E7C007B68012283F843207B68012283F844208D
:101E8C007B68012283F845207B68012283F83D2082
:101E9C00002318460837BD4680BD000080B485B0CD
:101EAC0000AF78607B6893F83D30DBB2012B01D03A
:101EBC00012335E07B68022283F83D207B681B6898
:101ECC00DA687B681B6842F00102DA607B681B6889
:101EDC00164A934209D07B681B68B3F1804F04D03B
:101EEC007B681B68124A934211D17B681B689B6804
:101EFC0003F00703FB60FB68062B10D07B681B68A4
:101F0C001A687B681B6842F001021A6007E07B6864
:101F1C001B681A687B681B6842F001021A60002378
:101F2C0018461437BD4680BC704700BF002C0140DA
:101F3C000004004080B584B000AF78607B681B68FB
:101F4C00DB68FB607B681B681B69BB60BB6803F0CC
:101F5C000203002B20D0FB6803F00203002B1BD0E4
:101F6C007B681B686FF002021A617B6801221A778A
:101F7C007B681B689B6903F00303002B03D0786814
:101F8C0000F098F905E0786800F08BF9786800F0BB
:101F9C009AF97B6800221A77BB6803F00403002BC4
:101FAC0020D0FB6803F00403002B1BD07B681B685C
:101FBC006FF004021A617B6802221A777B681B6837
:101FCC009B6903F44073002B03D0786800F072F91E
:101FDC0005E0786800F065F9786800F074F97B68C2
:101FEC0000221A77BB6803F00803002B20D0FB6893
:101FFC0003F00803002B1BD07B681B686FF00802F2
:10200C001A617B6804221A777B681B68DB6903F012
:10201C000303002B03D0786800F04CF905E07868D6
:10202C0000F03FF9786800F04EF97B6800221A77CF
:10203C00BB6803F01003002B20D0FB6803F01003E7
:10204C00002B1BD07B681B686FF010021A617B6839
:10205C0008221A777B681B68DB6903F44073002B3A
:10206C0003D0786800F026F905E0786800F019F9DB
:10207C00786800F028F97B6800221A77BB6803F0B7
:10208C000103002B0CD0FB6803F00103002B07D0DD
:10209C007B681B686FF001021A617868FEF724FEFA
:1020AC00BB6803F08003002B0CD0FB6803F08003AB
:1020BC00002B07D07B681B686FF080021A61786870
:1020CC0000F06FFABB6803F04003002B0CD0FB68E8
:1020DC0003F04003002B07D07B681B686FF04002B5
:1020EC001A61786800F0F8F8BB6803F02003002B45
:1020FC000CD0FB6803F02003002B07D07B681B6817
:10210C006FF020021A61786800F042FA00BF1037B5
:10211C00BD4680BD80B584B000AF786039600023C7
:10212C00FB737B6893F83C30012B01D10223B4E0A4
:10213C007B68012283F83C207B68022283F83D20D7
:10214C007B681B689B68BB60BB6823F07703BB6034
:10215C00BB6823F47F43BB607B681B68BA689A60DA
:10216C003B681B68B3F5005F3ED0B3F5005F00F22F
:10217C008780B3F5805F00F08680B3F5805F7FD8F1
:10218C00702B1AD0702B7BD8602B50D0602B77D84B
:10219C00502B3CD0502B73D8402B58D0402B6FD8A1
:1021AC00302B64D0302B6BD8202B60D0202B67D8F1
:1021BC00002B5CD0102B5AD062E07B6818683B680F
:1021CC0099683B685A683B68DB6800F06AF97B6881
:1021DC001B689B68BB60BB6843F07703BB607B6884
:1021EC001B68BA689A604FE07B6818683B6899680E
:1021FC003B685A683B68DB6800F053F97B681B68E6
:10220C009A687B681B6842F480429A603CE07B6869
:10221C0018683B6859683B68DB681A4600F0CAF8D6
:10222C007B681B685021184600F021F92CE07B6874
:10223C0018683B6859683B68DB681A4600F0E8F898
:10224C007B681B686021184600F011F91CE07B6864
:10225C0018683B6859683B68DB681A4600F0AAF8B6
:10226C007B681B684021184600F001F90CE07B6884
:10227C001A683B681B681946104600F0F8F803E032
:10228C000123FB7300E000BF7B68012283F83D2033
:10229C007B68002283F83C20FB7B18461037BD4638
:1022AC0080BD80B483B000AF786000BF0C37BD46F2
:1022BC0080BC704780B483B000AF786000BF0C372F
:1022CC00BD4680BC704780B483B000AF786000BF5F
:1022DC000C37BD4680BC704780B483B000AF7860CB
:1022EC0000BF0C37BD4680BC7047000080B485B081
:1022FC0000AF786039607B681B68FB607B682B4A99
:10230C00934207D07B68B3F1804F03D07B68284A97
:10231C00934208D1FB6823F07003FB603B685B6859
:10232C00FA681343FB607B68204A934207D07B68B2
:10233C00B3F1804F03D07B681D4A934208D1FB68F0
:10234C0023F44073FB603B68DB68FA681343FB6063
:10235C00FB6823F080023B685B691343FB607B687E
:10236C00FA681A603B689A687B68DA623B681A689C
:10237C007B689A627B680D4A934203D13B681A6969
:10238C007B681A637B6801225A617B681B6903F0C6
:10239C000103002B05D07B681B6923F001027B68CD
:1023AC001A6100BF1437BD4680BC7047002C014039
:1023BC000004004080B487B000AFF860B9607A6068
:1023CC00FB681B6A7B61FB681B6A23F00102FB68DC
:1023DC001A62FB689B693B613B6923F0F0033B612C
:1023EC007B681B013A6913433B617B6923F00A0349
:1023FC007B617A69BB6813437B61FB683A699A61BC
:10240C00FB687A691A6200BF1C37BD4680BC7047F6
:10241C0080B487B000AFF860B9607A60FB681B6A63
:10242C007B61FB681B6A23F01002FB681A62FB6875
:10243C009B693B613B6923F470433B617B681B03E5
:10244C003A6913433B617B6923F0A0037B61BB6852
:10245C001B017A6913437B61FB683A699A61FB68DB
:10246C007A691A6200BF1C37BD4680BC704780B4C5
:10247C0085B000AF786039607B689B68FB60FB6857
:10248C0023F07003FB603A68FB68134343F00703C7
:10249C00FB607B68FA689A6000BF1437BD4680BC4D
:1024AC00704780B487B000AFF860B9607A603B6069
:1024BC00FB689B687B617B6923F47F437B613B6892
:1024CC001A027B681A43BB6813437A6913437B6116
:1024DC00FB687A699A6000BF1C37BD4680BC7047A8
:1024EC0080B485B000AF786039607B6893F83C307D
:1024FC00012B01D1022341E07B68012283F83C20AF
:10250C007B68022283F83D207B681B685B68FB605C
:10251C007B681B689B68BB60FB6823F07003FB60E7
:10252C003B681B68FA681343FB607B681B68FA689E
:10253C005A607B681B68144A934209D07B681B68FD
:10254C00B3F1804F04D07B681B68104A93420CD1C6
:10255C00BB6823F08003BB603B685B68BA681343BD
:10256C00BB607B681B68BA689A607B68012283F841
:10257C003D207B68002283F83C200023184614374A
:10258C00BD4680BC704700BF002C014000040040D9
:10259C0080B483B000AF786000BF0C37BD4680BC00
:1025AC00704780B483B000AF786000BF0C37BD4675
:1025BC0080BC704770B500260C4D0D4C641BA410EC
:1025CC00A64209D100F022F800260A4D0A4C641BE1
:1025DC00A410A64205D170BD55F8043B98470136AE
:1025EC00EEE755F8043B98470136F2E7542600080D
:1025FC0054260008542600085826000803460244B6
:10260C00934200D1704703F8011BF9E7F8B500BFFE
:10261C00F8BC08BC9E467047F8B500BFF8BC08BCB7
:04262C009E4670470F
:102630000000000000000000010203040607080972
:1026400002030405060708090A0B0C0D0E0F1010F3
:042650000102000083
:042654003101000848
:042658000D01000868
:10265C00000801400008014000080140000801404A
:10266C00000801400008014000080140000801403A
:10267C000400080000040008001000200040008046
:10268C00000C0140000C0140000C0140000C01400A
:10269C00000C0140000C0140000C0140000C0140FA
:1026AC00000100020004000800100020004000801F
:0C26BC0000127A00100000000100000075
:0400000508000FCD13
:00000001FF
